:020000040800F2
:1000000000040020170400085D0400085F040008D5
:100010006104000863040008650400080000000093
:10002000000000000000000000000000670400085D
:1000300069040008000000006B0400086D0400085B
:10004000194E000837040008370400083704000878
:100050003704000837040008370400083704000894
:100060003704000837040008370400083704000884
:100070003704000837040008370400083704000874
:100080003704000837040008370400083704000864
:100090003704000837040008370400083704000854
:1000A0003704000837040008370400083704000844
:1000B0003D3D0008193D00083704000837040008DA
:1000C0003704000837040008370400083704000824
:1000D00037040008DB0400087909000867050008F8
:1000E0003704000837040008370400083704000804
:1000F00037040008370400083704000837040008F4
:1001000037040008370400083704000837040008E3
:1001100085050008090600083704000837040008B0
:1001200037040008370400083704000837040008C3
:1001300000F002F800F094F80AA090E8000C824465
:100140008344AAF10107DA4501D100F089F8AFF242
:10015000090EBAE80F0013F0010F18BFFB1A43F0A5
:1001600001031847B88A0000D88A0000103A24BF5B
:1001700078C878C1FAD8520724BF30C830C144BF0C
:1001800004680C607047000000230024002500264E
:10019000103A28BF78C1FBD8520728BF30C148BFEA
:1001A0000B6070476E2906F0BF84702906F0018647
:1001B000662907F06D87652907F06A87672907F0C8
:1001C00067876129AFF3008003681B0A28BF41F0ED
:1001D0008001692906F06C84642906F06984752918
:1001E00006F066846F2906F08F85782906F0CD85A4
:1001F000E92906F02985E42906F02685F52906F087
:100200002385EF2906F08C85F82906F0CC85036854
:10021000DB0928BF41F08001632907F0C081732901
:1002200007F0C581E32907F0D081F32907F0D581D4
:10023000002070471FB59DE8030006F0A1FB07F002
:1002400025FA04000020002107F00CFF401C60602C
:100250000020002107F0F0FEE0601FBD10B510BDCA
:1002600007F0E6F91146FFF7E5FF00F009F807F09F
:10027000BFFA03B4FFF7F2FF03BC04F0AFF80000CD
:1002800000F011F800251E4C04F0C3FD00F0A9FA9F
:1002900002F098FF00F017FC20780128F4D12570B7
:1002A00000F0C4FEF0E710B500F082F800F03EFF69
:1002B00004F0A9F81348006804F0D2F904F044FBF4
:1002C00004F022FC04F0D6FC04F091FD01217D2015
:1002D00001F0E6F901210C4801F09EF802F086FFDA
:1002E00003F0E6F903F0A8FA08480021C288C068C4
:1002F00000F016FF01F0B2FBBDE8104000F091BC29
:1003000018000020100000200002300054240020BB
:100310000CB50022394800920192016841F4803105
:1003200001604FF4A063016801F40031019100996C
:10033000491C0091019911B900999942F3D10168C2
:10034000890333D5012101912D490A6842F0100239
:100350000A600A6822F003020A600A6842F0020298
:100360000A604168416041684160416841F48061D0
:100370004160416821F47C114160416841F4E81119
:100380004160016841F08071016001688901FCD51C
:10039000416821F003014160416841F00201416080
:1003A0004168C1F381010229FAD10CBD0192FEE737
:1003B000124810B5016841F0010101604168114A1D
:1003C000114041600168104A11400160016821F448
:1003D00080210160416821F4FE01416000248460B5
:1003E000FFF796FF4FF0E02008494161084AF021ED
:1003F00082F8141D84610721016110BD00100240C4
:10040000002002400000FFF8FFFFF6FE3F19010048
:100410000FE000E070470B4880470B4981F30888E4
:100420000A480047FEE7FEE7FEE7FEE7FEE7FEE7D5
:10043000FEE7FEE7FEE7FEE705480649044A064BED
:100440007047000015040008F83B00203101000847
:10045000F82B0020F83B0020F82B00207047FEE727
:10046000FEE7FEE7FEE770477047704770B5874CC0
:100470000025657000F0F8FA03F0B1FF04F03CFAD3
:1004800004F0D4FB04F08AFC02F08EFE8048016880
:100490004268491C42F10002016042607D480078D8
:1004A000012804D00021A160E160257070BDA06822
:1004B000E168401C41F10001A060E160A06844F6E1
:1004C00020620023E16806F09CF81A43EED1002078
:1004D000A060E0600120207070BD70B56E4C40F2ED
:1004E00025552946204601F06CFA68B320212046A4
:1004F00001F064FA2946204601F082FA204601F014
:100500000DFAC4B26148654D847095F8C8000026A4
:1005100058B9012085F8C8006420C5F8CC0085F8DA
:10052000CA60C821284606F0A3F995F8CA00C82871
:1005300007D295F8CA002918401C85F8CA000C702B
:1005400070BD85F8CA6070BD0821204601F02FFA01
:100550000028F8D0204601F0E1F92046BDE87040BF
:10056000082101F02BBA10B54D4C40F22551204620
:1005700001F027FA002804D0204601F0CFF94349C2
:10058000C87010BD70B5474C40F22555294620462D
:1005900001F017FA48B32946204601F031FA204607
:1005A00001F0BCF9C4B239483F4D047195F8C80058
:1005B000002658B9012085F8C8006420C5F8CC0091
:1005C00085F8CA60C821284606F052F995F8CA0095
:1005D000C82807D295F8CA002918401C85F8CA0017
:1005E0000C7070BD85F8CA6070BD0821204601F00E
:1005F000DEF90028F8D0204601F090F92046BDE849
:100600007040082101F0DAB970B5284C40F2255548
:100610002946204601F0D5F948B32946204601F085
:10062000EFF9204601F07AF9C4B21848204D447120
:1006300095F8C800002658B9012085F8C800642044
:10064000C5F8CC0085F8CA60C821284606F010F924
:1006500095F8CA00C82807D295F8CA002918401C86
:1006600085F8CA000C7070BD85F8CA6070BD08219D
:10067000204601F09CF90028F8D0204601F04EF900
:100680002046BDE87040082101F098B90000002024
:1006900028000020200000200038014068240020AD
:1006A00000480040004C0040082600200050004058
:1006B000D82600204FF4FA5302E01946491EFDD215
:1006C000401EFAD2704702E00721491EFDD2401EAB
:1006D000FAD270472DE9F04F8BB02821684606F01A
:1006E000C7F80024BE4FA2464FF010084FF0400953
:1006F0004FF0010B04EBC406200107EB8605022135
:10070000287185F805A085F8068085F8079085F89A
:1007100002A085F80AA0A98285F803A0A5F812A076
:10072000A5F80EA0A5F810A0AE49A5F80CA0A5F854
:1007300016A081F801A007F826B0286A18B100F0C9
:100740005EFDC5F820A085F8088085F80990802016
:10075000E88200F05BFD286200283BD0EA8A002195
:1007600000F0DEFC85F801B007F826B034B1012CAA
:100770000ED0022C16D0032C1ED02BE02821684668
:1007800006F076F898A1684605F0C4FF3A6A1DE0C5
:100790002821684606F06CF896A1684605F0BAFF75
:1007A0007A6C13E02821684606F062F894A1684646
:1007B00005F0B0FFBA6E09E02821684606F058F847
:1007C00092A1684605F0A6FFD7F88C20082168465C
:1007D00002F0C9FE641CE4B2042C8BD30BB0BDE85C
:1007E000F08F70B58C4900208C4A0D788C4C8D4B65
:1007F000012D06D082F8C90084F8C90083F8C90029
:1008000070BD92F8C950012D11D094F8C920012A69
:1008100010D093F8C920012A0FD0834A1278012AF8
:10082000EED1087000F0E2FBBDE8704052E782F8BC
:10083000C90004E084F8C90001E083F8C900087029
:10084000BDE8704000F0B5BB2DE9F04F8BB028211A
:10085000684606F00DF80025614F0126A84605EB15
:10086000C50017F82010D9B107EB8004206A38B111
:10087000204601F0B3FF206A00F0C1FCC4F82080DC
:10088000207A617A0009C9084843000100F0BEFCE3
:1008900020620028A2D0E28A002100F041FC6670AC
:1008A0006D1CEDB20A2DDAD3B14600254FF0100AC7
:1008B0004FF0400B464605EBC50107EB81042801CC
:1008C0002071667184F806A084F807B0A670A6723D
:1008D0000220A0826682E6812682A681414AE682C3
:1008E000884684F8039082F8019007F82890206ADF
:1008F00010B100F084FC266284F808A084F809B0E6
:100900008020E08200F082FC206250B1E28A002167
:1009100000F006FC012D0DD0022D1AD0667007F8EC
:1009200028606D1CEDB2042DC5D316213FA003F045
:1009300003FD53E72A49684681F8259087F82490FB
:10094000282105F095FF3FA1684605F0E3FE7A6C8B
:100950000DE02349684681F8499087F8489028219E
:1009600005F086FF3AA1684605F0D4FEBA6E08216C
:10097000684602F0F8FDD4E738B5384C40F225510E
:10098000204601F01EF8012578B1354901F8C85F0D
:1009900003204860204600F0C1FF8DF800009DF85C
:1009A0000000BDE8384000F049B91021204600F0B1
:1009B000FEFF30B120882948001D008829480570B5
:1009C00038BD0821204600F0F2FF0028F8D020466C
:1009D00000F0A4FF2046BDE83840082100F0EEBF3B
:1009E0008022002054240020BBB6D3ADCAB9D3C3A3
:1009F00000000000C3C020BEB020B4EF0000000023
:100A0000C9A8C2EBD6A7B8B600000000D7D4D6FA62
:100A1000D6D5B6CB0000000020000020D82600204C
:100A2000082600206824002000000020D6A7B8B6C1
:100A3000B3C9B9A6A3ACD7A3C4FAD2BBC2B7CBB3D0
:100A4000B7E70000D6A7B8B6B3C9B9A60000000042
:100A5000C7EB20CDA820D0D000000000004400400B
:100A6000382500201800002009480168491C016051
:100A70007047074800687047054908B50968009144
:100A8000814201D3081A08BDC043084408BD0000D4
:100A900014000020F0B52A261E7000255A709870A8
:100AA0000324284609E003EB000C0F5C8CF803706C
:100AB0000F5C401C3D44EDB2641C9042F3DB1D55BD
:100AC000641C1E55F0BD30B5FE4C8BB0002560781F
:100AD00038B90120607001468DF80050684603F077
:100AE000ABFEA06842F210720023E16805F089FDB8
:100AF0001A430CD1052208958DF824506B4608A99D
:100B00001046FFF7C7FF0A21684603F095FE0BB0B9
:100B100030BD0EB5ECA10EC98DE80E00412101706B
:100B20004421417002216A46535C4354491C0929FF
:100B3000FADB0EBD70B505460C46102005F00BFD26
:100B4000002804D000210560C160C0E9014170BDEA
:100B500070B5044605F0FFFC050005D02146FFF7FF
:100B6000E9FF040002D004E0002070BD284605F033
:100B700021FD204670BD10B50446006805F01AFD41
:100B80002046BDE8104005F015BD2DE9F0410446B2
:100B90000F46D4E90101E568431A1D44954200D986
:100BA0001546421E1140461AAE4200D92E46206814
:100BB00032460844394605F00EFEAA1BB9192068D2
:100BC00005F009FEA0682844A0602846BDE8F08131
:100BD0002DE9F04104460F46D4E902100D1A954262
:100BE00000D9154661684A1E10400E1AAE4200D95F
:100BF0002E46216832460144384605F0ECFDAA1B1A
:100C0000B819216805F0E7FDE0682844E06028464F
:100C1000DCE70021C16081607047D0E90210081A4A
:100C2000704710B54FF48070FFF792FFA5494860F8
:100C300008B1002010BD4FF0FF3010BD01B5A14834
:100C4000012269464068FFF7A0FF08BD2DE9F04F7B
:100C50008FB00C4605462821684605F009FE202283
:100C600010210AA805F0FCFD224629460AA805F035
:100C7000B2FD0025974E0127A84605EBC50016F8E2
:100C80002010D9B106EB8004206A38B1204601F06B
:100C9000A5FD206A00F0B3FAC4F82080207A617ABA
:100CA0000009C9084843000100F0B0FA206200289A
:100CB00048D0E28A002100F033FA67706D1CEDB273
:100CC0000A2DDAD3B946474600254FF0100A4FF0F7
:100CD000400BB04605EBC50608EB860428012071E1
:100CE000677184F806A084F807B0A770A772022085
:100CF000A0826782E7812782A781774AE78284F80A
:100D0000039082F8019008F82690206A10B100F054
:100D100076FA276284F808A084F809B08020E0827F
:100D200000F074FA206248B1E28A002100F0F8F97C
:100D30005DB1012D09D0677008F826706D1CEDB209
:100D4000042DC7D30FB0BDE8F08F84F8019008F8E8
:100D500026902821684605F08BFD0AA800EBC50007
:100D6000D0E90010CDE9001008216846226A02F09F
:100D7000FAFBE3E710B50A284ED2DFE800F0050CD5
:100D8000131A21282F363D44082154A003F0D4FA29
:100D9000082152A03DE0082153A003F0CDFA08211C
:100DA00051A036E0082153A003F0C6FA082151A053
:100DB0002FE0082152A003F0BFFA082150A028E03C
:100DC000082152A003F0B8FA082150A021E00A211E
:100DD00051A003F0B1FA0A214FA01AE00A2151A054
:100DE00003F0AAFA0A214FA013E0082150A003F053
:100DF000A3FA08214EA00CE00C2150A003F09CFAAD
:100E00000C214EA005E0082150A003F095FA08211E
:100E10004EA0BDE8104019E710BD2DE9F04F8BB092
:100E20002821684605F024FD00252A4F0126A84602
:100E300005EBC50017F82010D9B107EB8004206A34
:100E400038B1204601F0CAFC206A00F0D8F9C4F895
:100E50002080207A617A0009C9084843000100F027
:100E6000D5F92062002877D0E28A002100F058F9F5
:100E700066706D1CEDB20A2DDAD3B34600254FF033
:100E8000100A4FF04009464605EBC50107EB810407
:100E900028012071667184F806A084F80790A67076
:100EA000A6720220A0826682E6812682A6810A4A74
:100EB000E682884684F803B082F801B007F828B0CB
:100EC000206A4AE020000020414141414141414126
:100ED000410000008022002054240020D6A7B8B68C
:100EE000B3C9B9A600000000D6A7B8B6CAA7B0DC3F
:100EF00000000000D3E0B6EEB2BBD7E30000000074
:100F0000C3DCC2EBB4EDCEF300000000B6A9B5A57A
:100F1000B3B7CFFA00000000D6A7B8B6C2EBCAA795
:100F2000D0A70000D6A7B8B6C2EBCEDED0A700008F
:100F3000B5C8B4FDBDBBD2D700000000C7EBB3F607
:100F4000CABED6A7B8B6C2EB00000000D5FDD4DA01
:100F5000BDBBD2D7000000001DE010B100F04FF97A
:100F6000266284F808A084F809908020E08200F0CE
:100F70004DF9206250B1E28A002100F0D1F8012D34
:100F80000BD0022D0FD0667007F828606D1CEDB2F3
:100F9000042DFFF479AF0BB0D5E6554880F82560F5
:100FA00087F82460F2E7524880F8496087F8486083
:100FB000ECE710B5A0B001216846FFF7AAFD4D4C43
:100FC00014F8CA2F4B490DF1090005F004FC2278F2
:100FD00010AB694604200932FFF75CFD20780E3023
:100FE000C1B210A803F028FC20B010BD00B597B026
:100FF0001C2110A805F03CFC44208DF84000412144
:101000008DF841108DF842008DF843106B461B227D
:1010100010A90420FFF73EFD2021684603F00CFCD8
:101020000C2135A003F088F917B000BD70B5364D1E
:101030008AB000246868FFF7F0FD052843DB012231
:1010400069466868FFF7C4FD6E460122711C686836
:10105000FFF7BEFD0122B11C6868FFF7B9FD9DF8DE
:101060000120F11C6868FFF7B3FD01220DF1230197
:101070006868FFF7ADFD012209A96868FFF7A8FDC0
:101080009DF800002A281ED19DF824002A281AD194
:10109000002230469DF8011004E08318521CDB78D2
:1010A0002344DCB29142F8DC9DF82320A2420AD10D
:1010B0009DF80220012A08D0022A11D0032A02D169
:1010C000F01CFFF7C3FD0AB070BD9DF803000128B6
:1010D000F9D1287002460D48002102604160F2E714
:1010E0009DF80300FFF746FEEDE700207047000083
:1010F00080220020D8260020B5C8B4FDC9A8C2EBC4
:10110000B3ACCAB10000000020000020080000209D
:1011100003E011F8013B00F8013B521EF9D2704781
:1011200001E000F8011B521EFBD2704710B5494C7C
:101130004FF400720021E068FFF7F2FF4FF4005215
:101140000021A068FFF7ECFF0120207410BD414A88
:1011500000210846D26832F8103003B1491C401C07
:10116000FF28F8D964204143C1F30720704770B5C8
:10117000384D06460024287C08B9286880474FF07F
:10118000FF33EEB1C6F34F11F00601D0491C89B20E
:10119000EA68FF2032F8106026B100248C420DD19D
:1011A000002207E0641CA4B2F8E7EB688418521C24
:1011B00023F814108A42F8D3400170BD401EE9D5CF
:1011C000184670BD70B5234B197C49B1B0F5005F6E
:1011D00013D24109D86830F811400020024608E0D7
:1011E00018688047012070BDDD680E18401C25F886
:1011F0001620A042F8DB002070BD022070BD002840
:1012000003D014498968401ADCE7704710B5FFF72E
:10121000AEFF411C03D00F498968084410BD00206F
:1012200010BD2DE9F04107460E460846FFF79FFF27
:101230000446401C0BD0074D32463946A86820446E
:10124000FFF766FF3846FFF7DAFFA8682044BDE8DD
:10125000F081000030000020884A10B5811A131573
:10126000D41490422ED00DDC854940181CD09842F1
:1012700021D0A0423BD10121102000F023FA00210F
:1012800010200DE0994224D0A14229D0B1F5406F41
:101290002DD101210C02204600F014FA0021204635
:1012A000BDE8104000F00EBA0121042000F00AFA57
:1012B00000210420F4E70121082000F003FA0021B6
:1012C0000820EDE70121202000F0FCF9002120207A
:1012D000E6E70121402000F0F5F900214020DFE79A
:1012E0000121802000F0EEF900218020D8E710BD18
:1012F00010B50121084600F0E5F90021BDE81040D5
:10130000012000F0DFB9F0B5CC78002204F00F0323
:10131000E40601D58C7823430C784FF00F0C4FF086
:10132000010EDCB105680E880EFA02F42640A642D2
:1013300010D196000CFA06F725EA070703FA06F51E
:10134000CE783D43282E02D0482E02D002E04461E0
:1013500000E00461521C082AE5D305600A88FF2AD0
:101360001CD94468002202F108060EFA06F50E8820
:101370002E40AE420ED196000CFA06F7BC4303FA9B
:1013800006F7CE783C43282E00D14561CE78482E12
:1013900000D10561521C082AE5D34460F0BD4FF628
:1013A000FF710180022181700421C17070470246E3
:1013B000002092680A4200D001207047806880B205
:1013C000704702460020D2680A4200D001207047D0
:1013D000C06880B2704701617047416170470AB1CF
:1013E0000161704741617047C160704741F48032CC
:1013F000826181618261816980697047214B10B58A
:101400001A684FF68074224042EA001008431860C0
:1014100010BD1D49C8617047F0B51A4D6B68440D89
:10142000260184B2C0F30157B440C0F30342032F36
:1014300005D0C0020AD503209040834307E06868C6
:1014400023F0706220F07060686002E0A34343F014
:10145000706201B122436A60F0BD10B58A0721F0C5
:1014600003040849120F21440F238C6893409C43C6
:101470008C608B68904003438B6010BD001401406A
:1014800000F8FEBF0000014000002042A4480168AF
:1014900041F0010101604168A24A114041600168C8
:1014A000A14A11400160016821F480210160416876
:1014B00021F4FE01416000218160704798490A686B
:1014C00022F480320A600A6822F480220A60B0F5B1
:1014D000803F07D0B0F5802F03D1086840F4A020EA
:1014E00008607047086840F48030F9E70346002040
:1014F00059098B4A01290AD002290AD0516A03F0FE
:101500001F02012393400B4200D001207047116855
:10151000F5E7116AF3E718B500204FF4A0640090D6
:101520003120FFF7E3FF0099491C009108B9A1425F
:10153000F6D13120FFF7DAFF002800D0012018BDD6
:10154000774A116821F0F80141EAC0001060704745
:10155000764908607047724B5A68084322F47C123F
:101560001043586070477149086670476C4A51686B
:1015700021F003010143516070476948406800F061
:101580000C007047664A516821F0F0010143516038
:101590007047634A516821F4E0610143516070472C
:1015A0005F4A516821F4605141EAC00050607047C1
:1015B0005B4A0029517A01D0014300E08143517216
:1015C00070475A49D83108607047554A516821F42C
:1015D00040410143516070475149002281F8202069
:1015E00081F82020012802D0042802D1052081F8AA
:1015F000200070474E490860704749490A6A024313
:101600000A6270474A4944390860704730B5444A15
:101610005168484B11F00C0103D0042901D008296E
:1016200001D0036011E05168022301F4701103EB53
:101630009141536813F4803F02D053689B0301D556
:101640003D4B00E03B4B5943016051680F2303EAD7
:1016500011113A4B5C5C0168E14041605468072518
:1016600005EA14241C5D21FA04F48460546805EA38
:10167000D4241B5DD940C1605268032303EA92322F
:101680002E4B1B1F9A5CB1FBF2F1016130BD244A65
:101690000029516901D0014300E081435161704745
:1016A0001F4A0029916901D0014300E08143916103
:1016B00070471B4A0029D16901D0014300E08143F2
:1016C000D1617047164A0029D16801D0014300E07A
:1016D0008143D1607047124A0029116901D001434A
:1016E00000E081431161704711494039086070473B
:1016F0000E49C86470470A49C87170470848416A72
:1017000041F0807141627047054A014600209268AD
:101710000A4200D0012070470149887270470000DA
:10172000001002400000FFF8FFFFF6FE00004242FA
:101730008004424200127A0000093D004800002067
:10174000B24A10B5811A131590421BD007DCB0497C
:10175000401814D0984223D10121040217E0994285
:1017600013D0B1F56C4F1BD101218C032046FFF73C
:10177000A9FF2046BDE810400021FFF7A3BF0121CB
:101780004C0404E00121CC0401E001210C052046B9
:10179000FFF7A1FF2046BDE810400021FFF79BBFE7
:1017A00010BD30B50446008A85B00D464CF6FF7179
:1017B0000840E98801432182A0894EF6F3110840D0
:1017C000A9882A8911436A8902431143A181A08A09
:1017D0004FF6FF410840A9890143A1826846FFF7FF
:1017E00015FF8C48844201D1039800E002986422DE
:1017F00000EBC00101EB001029686FF018058900AB
:10180000B0FBF1F0B0FBF2F109010B096B4300EB07
:101810008300322303EB0010B0FBF2F000F00F0066
:101820000843208105B030BD4FF4165101600021FE
:101830008180C18001810C2242818181704710B575
:10184000028A4FF2FF031A400B884C8823438C888E
:10185000C9880C4323431343038210BD0021018038
:1018600041808180C18070470029818902D041F484
:10187000005101E021F400518181704710B5C1F39E
:10188000421301F01F040121A140012B07D0022BBC
:1018900007D01430002A026805D00A4304E00C3057
:1018A000F8E71030F6E78A43026010BD002A828A0A
:1018B00001D00A4300E08A4382827047028A22F004
:1018C0000F020282028A0A4302827047828922F44E
:1018D0000062828182890A4382817047002981895E
:1018E00002D041F0020101E021F002018181704744
:1018F000028A22F020020282028A0A430282704790
:101900000029018A02D041F4804101E021F48041A4
:1019100001827047C1F30801818070478088C0F35D
:1019200008007047818941F0010181817047028B75
:10193000D2B20283028B42EA012101837047028BFB
:1019400002F47F420283028B0A430283704700291C
:10195000818A02D041F0200101E021F02001818242
:1019600070470029818A02D041F0100101E021F086
:101970001001818270470029818A02D041F008015C
:1019800001E021F0080181827047828A22F004027E
:101990008282828A0A43828270470029818A02D029
:1019A00041F0020101E021F002018182704702460C
:1019B000002012880A4200D001207047C9430180EC
:1019C000704770B501F01F0501260024C1F34213D2
:1019D00006FA05F2012B0FD0022B0FD0838A4FEAB3
:1019E00011210088134206FA01F600EA060001D030
:1019F00000B10124204670BD8389F0E7038AEEE739
:101A00000A0A01219140C94301807047004C0040FF
:101A100000BCFFBF003801403EB54868FAA104F0A1
:101A20004FFF002819D101F075FCF94D002404EB9B
:101A3000C40015F8201061B105EB8000C179C38A9C
:101A400082798DE80E0003794279611CF1A002F0E1
:101A500079FD641CE4B20A2CE9D33EBD01F05ABC06
:101A60002DE9F74F8EB092460F9A5142002A00DAC4
:101A70000A46C379467A1A44B24201DC049306E06E
:101A80000F9A002A00DA0A46B21AD2B20492BAF1C8
:101A90000002C2F1000300DA1A468579047A2A446A
:101AA000A24205DDBAF1000200DA1A46A21AD5B246
:101AB0000F9A002A00DA0A46C2F3CF044779BAF136
:101AC000000200DA1A464FEAD609049EDFF878C30E
:101AD0004FEAD60608964FEA151609960679BCF81D
:101AE00004C04FEA161606FB0CF606EBD706C2F347
:101AF0000F121FFA86FB00DB5346DE1703EB167648
:101B00003611A3EB06139BB2039305F00F03079363
:101B10000F9B002B07DBF918CB1701EB537323F056
:101B20000703C91A05E0CB1701EB5373DB10A1EBD8
:101B3000C3018BB20021F0E30025BEE2BAF1000F31
:101B400002DB4FF0000600E0039E009601DB039EDF
:101B500001E04FF000060296039E4FF0000EC6F122
:101B60001006059631E10F9E002E7DDBBAF1000FC5
:101B700001DB164601E04FF00006B34F06EB010C07
:101B8000BE880D960CFB064C0BEB0506B44406967E
:101B9000BE680C96029F06EB0C1C07EB0E06019626
:101BA0001CF80670C3F108060B9627FA06F7D0F862
:101BB00020C007FA06F702DB4FF0000600E01646E9
:101BC00006EB010808FB09560CEB061C009E764448
:101BD0000A961CF8066026FA03F647EA060707F09D
:101BE000FF0C01DB164601E04FF0000606EB010892
:101BF0000D9E954F08FB0648069EB0440C9E06EBD2
:101C00000818019E08F806C001DB164601E04FF0F7
:101C1000000606EB010CBE880D960CFB064C069EDA
:101C2000B444BE680CF1010C06EB0C170C96019E37
:101C3000D0F820C0BF5D07FA03F747FA03F702DBCD
:101C40004FF0000600E0164606EB010808FB0956B7
:101C50000CEB061C0A9E1CF80660DDF82CC006FA88
:101C60000CF647EA060700E016E0FFB201DB164675
:101C700001E04FF0000606EB010C0D9E0CFB064C3C
:101C8000069E6644DDF830C006F101060CEB061C2A
:101C9000019E0CF8067093E00BEB05060696BAF170
:101CA000000F01DB174601E04FF00007DFF898C195
:101CB00007EB0108BCF804700D9708FB0767DCF818
:101CC00008600C9606EB071C029F07EB0E060196B8
:101CD0001CF80670C3F1080607FA06F747FA06F77C
:101CE00005EB040C0B9602DB4FF0000600E01646F5
:101CF00006EB010808FB09C6D0F820C00CEB061C57
:101D0000009E76440A961CF8066006FA03F647EA37
:101D1000060707F0FF0C069F01DB164601E04FF0B7
:101D2000000606EB01080D9E08FB06770C9E06EBED
:101D30000717019E07F806C0DDF818C001DB16463C
:101D400001E04FF00006404F06EB0108BE880D96FB
:101D500008FB06CCBE680C9606EB0C17019ED0F86B
:101D600020C0BF5D27FA03F707FA03F702DB4FF045
:101D7000000600E0164606EB010808FB095604F1D0
:101D8000010846440CEB061C0A9E1CF80660DDF8B0
:101D90002CC026FA0CF647EA060707F0FF0C069F50
:101DA00001DB164601E04FF0000606EB01080D9E30
:101DB00008FB06770C9E06EB0717019E07F806C086
:101DC0000EF101061FFA86FE059E76453FF7CBAE63
:101DD000BAF1000F01DB059E01E04FF00006B6B23C
:101DE000009602DB4FF0000600E0059EB6B20296B8
:101DF0004FF000065AE10F9E002E76DBBAF1000F7D
:101E000024DB02F1010623E07175657279000000A0
:101E100080220020726561642061726561206964BE
:101E20003A256420783A256420793A256420773A67
:101E3000256420683A25642062756673697A653A7C
:101E400025640D0A00000000542400204FF0000615
:101E5000FD4F06EB010CBE880C960CFB064C0BEB01
:101E60000506B4440596BE68029F06EB0C1C0B9653
:101E700007EB0E0601961CF80670C3F108060A96D9
:101E800027FA06F7D0F820C007FA06F702DB4FF072
:101E9000000601E002F1010606EB010808FB095605
:101EA0000CEB061C009E764406961CF8066026FA8B
:101EB00003F647EA060707F0FF0C02DB02F1010612
:101EC00001E04FF0000606EB01080C9EDE4F08FB18
:101ED0000648059EB0440B9E06EB0818019E08F8C4
:101EE00006C003DB02F1010602E043E04FF000060A
:101EF00006EB010CBE880C960CFB064C059EB44408
:101F0000BE680CF1010C06EB0C170B96019ED0F885
:101F100020C0BF5D07FA03F747FA03F702DB4FF073
:101F2000000601E002F1010606EB010808FB095674
:101F30000CEB061C069E1CF80660DDF828C006FAAD
:101F40000CF647EA0607FFB202DB02F1010601E0E8
:101F50004FF0000606EB010C0C9E0CFB064C059E98
:101F6000B4440B9E0CF1010C06EB0C1C019E0CF80A
:101F7000067098E00BEB05070597BAF1000F02DB3E
:101F800002F1010601E04FF00006DFF8BCC206EBEB
:101F90000108BCF804600C9608FB0677DCF80860C2
:101FA0000B9606EB071C029E764401961CF8067001
:101FB000C3F1080607FA06F747FA06F705EB040C23
:101FC0000A9602DB4FF0000601E002F1010606EB83
:101FD000010808FB09C6D0F820C00CEB061C009EC7
:101FE000764406961CF80660DDF814C006FA03F67F
:101FF00047EA0607FFB202DB02F1010601E04FF0FB
:10200000000606EB01080C9E08FB06CC0B9E06EBB7
:102010000C1C019E0CF80670DDF814C002DB02F106
:10202000010601E04FF00006874F06EB0108BE886D
:102030000C9608FB06CCBE680B9606EB0C17019EAF
:10204000D0F820C0BF5D27FA03F707FA03F702DBD9
:102050004FF0000601E002F1010606EB010808FB63
:10206000095804F1010646440CEB061C069E1CF8B8
:102070000660DDF828C026FA0CF647EA060707F0E6
:10208000FF0C059F02DB02F1010601E04FF00006A4
:1020900006EB01080C9E08FB06770B9E06EB071764
:1020A000019E07F806C00EF10106B6B2039FB646C0
:1020B000BE42FFF4A0AE6D1CADB2089EB542FFF467
:1020C0003DAD049E76077DD0BAF1000F02DB4FF0E4
:1020D000000600E0039E009601DB039E01E04FF046
:1020E00000060296039E4FF0000EC6F11006019600
:1020F000A1E00F9E002E49DBBAF1000F01DB16466E
:1021000001E04FF00006504F06EB010CBE880B9625
:102110000CFB064C0BEB0506B4440A96BE6806960B
:1021200006EB0C1C029E764405961CF80670C3F163
:10213000080627FA06F7D0F820C007FA06F702DBF0
:102140004FF0000600E0164606EB010808FB0956B2
:102150000CEB0618009E764418F8066026FA03F683
:1021600047EA0607FFB201DB164601E04FF0000622
:1021700006EB010C0B9E0CFB064C0A9EB444069E1B
:1021800006EB0C1C059E0CF806704FE00BEB0506E9
:102190000B96BAF1000F01DB174601E04FF0000784
:1021A000DFF8A4C007EB0108BCF804700A9708FB2D
:1021B0000767DCF80860069606EB071C029F07EB32
:1021C0000E0600E0F9E005961CF80670C3F108065B
:1021D00007FA06F747FA06F705EB040C02DB4FF0A7
:1021E000000600E0164606EB010808FB09C6D0F819
:1021F00020C00CEB0618009E764418F8066006FA1C
:1022000003F647EA060707F0FF0C0B9F01DB1646B3
:1022100001E04FF0000606EB01080A9E08FB067776
:10222000069E06EB0717059E07F806C00EF101068D
:102230001FFA86FE019E76453FF75BAFBAF1000FAD
:1022400004DB019E04E00000542400204FF000064F
:10225000B6B2009602DB4FF0000600E0019EB6B277
:1022600002964FF00006A3E00F9E002E4CDBBAF161
:10227000000F02DB02F1010601E04FF00006FB4F08
:1022800006EB010CBE880A960CFB064C0BEB050610
:10229000B4440696BE68059606EB0C1C029E764476
:1022A00001961CF80670C3F1080627FA06F7D0F865
:1022B00020C007FA06F702DB4FF0000601E002F14A
:1022C000010606EB010808FB09560CEB0618009EF8
:1022D000764418F8066026FA03F647EA0607FFB2C6
:1022E00002DB02F1010601E04FF0000606EB010CF3
:1022F0000A9E0CFB064C069EB444059E06EB0C1C85
:10230000019E0CF8067050E00BEB05070A97BAF136
:10231000000F03DB02F1010602E050E04FF000067F
:10232000DFF848C306EB0108BCF80460069608FB1A
:102330000677DCF80860059606EB071C029E7644DB
:1023400001961CF80670C3F1080607FA06F747FA6B
:1023500006F705EB040C02DB4FF0000601E002F18A
:10236000010606EB010808FB09C6D0F820C00CEBFB
:102370000618009E764418F8066006FA03F647EA47
:10238000060707F0FF0C0A9F02DB02F1010601E0DD
:102390004FF0000606EB0108069E08FB0677059E37
:1023A00006EB0717019E07F806C00EF10106B6B24C
:1023B000039FB646BE42FFF457AF491C89B2099D40
:1023C000A942FFF4B9AB079D002D7DD000253FE168
:1023D000BAF1000F02DB4FF0000500E0039D00950D
:1023E00001DB039D01E04FF0000502954FF0000571
:1023F0000195039DC5F11005069522E10F9D002D65
:102400007EDBBAF1000F01DB154601E04FF000055D
:10241000964F05EB0106BD880C9506FB054C0BEBB2
:102420000E050CEB05060795BD680B9505EB061729
:10243000DDE90165354405957E5DC3F10805099523
:1024400026FA05F6D0F820C006FA05F602DB4FF0B2
:10245000000500E0154605EB010808FB09E50CEB5B
:10246000051CDDE900573D440A951CF8055025FA86
:1024700003F546EA0506F7B201DB154601E04FF029
:10248000000505EB010C0C9D784E0CFB054C079DDF
:10249000AC440B9D05EB0C1C059D0CF8057001DB95
:1024A000154601E04FF0000505EB0107B5880C95D6
:1024B00007FB0547079D2F44B56807F1010705EBAA
:1024C00007160B95059D00E048E1765DD0F820C029
:1024D00006FA03F646FA03F602DB4FF0000500E0C9
:1024E000154605EB010808FB09E50CEB05170A9DED
:1024F0007D5D099F05FA07F546EA0506F7B200E09B
:102500000FE001DB154601E04FF0000505EB010689
:102510000C9D06FB0546079D2E4406F101060B9D0A
:1025200085E00BEB0E050795BAF1000F01DB1646AF
:1025300001E04FF000064D4F06EB010CBE880CFB8E
:10254000065CBD68099505EB0C1CDDE901753D4491
:1025500005951CF80570C3F1080507FA05F747FA59
:1025600005F70EEB040C0C9502DB4FF0000500E0C4
:10257000154605EB010808FB09C5D0F820C00CEB97
:10258000051CDDE9008545440B951CF80550DDF878
:102590001CC005FA03F547EA050707F0FF0801DB51
:1025A000154601E04FF000050D4405FB06C6099DE8
:1025B0002E4F05EB0616059D06F80580079E01DBEC
:1025C000154601E04FF0000505EB010CBD880A95AA
:1025D0000CFB0566BD68099505EB0616059D076AA7
:1025E000765D26FA03F606FA03F602DB4FF00005E5
:1025F00000E0154605EB010808FB09EC04F10105B4
:10260000654407EB05170B9D7D5D0C9F25FA07F5CB
:1026100046EA0506F7B2079E01DB154601E04FF0DA
:10262000000505EB010C0A9D0CFB0566099D05EBF9
:102630000616059D7755019D05F10105ADB2019581
:10264000069D019EB5423FF7D9AE0EF10105ADB230
:10265000089EAE46B542FFF4BBAE049D6D077DD02B
:10266000BAF1000F04DB4FF0000502E05424002013
:10267000039D009501DB039D01E04FF000050295ED
:102680004FF000050195039DC5F1100504959EE0EE
:102690000F9D002D4ADBBAF1000F01DB154601E06A
:1026A0004FF00005FF4F05EB0106BD88079506FBBF
:1026B000054C0BEB0E050CEB05060695BD68059564
:1026C00005EB0617DDE90156354403957E5DC3F140
:1026D000080526FA05F6D0F820C006FA05F602DB52
:1026E0004FF0000500E0154605EB010808FB09E581
:1026F0000CEB051CDDE900573D441CF8055025FA9C
:1027000003F546EA0506F6B201DB154601E04FF097
:10271000000505EB0107079D07FB0547069D2F44B4
:10272000059D05EB0717039D7E554AE00BEB0E0553
:102730000695BAF1000F01DB164601E04FF00006E6
:10274000D84F06EB010CBE880CFB065CBD680595F6
:1027500005EB0C1CDDE901753D4400E03BE0039511
:102760001CF80570C3F1080507FA05F747FA05F7E5
:102770000EEB040C02DB4FF0000500E0154605EB04
:10278000010808FB09C5D0F820C00CEB0518DDE9ED
:10279000005C654418F8055005FA03F547EA05079B
:1027A00007F0FF0C069F01DB154601E04FF0000526
:1027B0000D4405FB0676059D05EB0616039D06F800
:1027C00005C0019D05F10105ADB20195049D019E75
:1027D000B5423FF75DAF11B0BDE8F08F2DE9F04F86
:1027E00089B0C57902958379ED0804951D09069590
:1027F000AC4E00210579B68840792D09754303F068
:102800000F0305EBD0050593894600F007038B46BF
:102810000C460A461FFA85FA4846C8E10025F3E04F
:10282000002C01DB4E4600E000260096C9F11006A0
:102830004FF0000E03966BE0BBF1000F63DB002C42
:1028400001DB0E4601E04FF00006964F06EB000C50
:10285000BE8808960CFB062C0AEB0506B4440196CC
:10286000BE68079606EB0C17009E764417F806C064
:10287000C3F108072CFA07FC0CFA07FC0CF0FF0C5C
:1028800001DB0F4601E04FF0000707EB0008089F4F
:1028900008FB0728019FB844079F07EB081707F8B4
:1028A00006C001DB0F4601E04FF00007DFF8F481BE
:1028B00007EB000CB8F8047008970CFB072C019F7D
:1028C000BC44D8F808700CF1010C079707EB0C1703
:1028D000BF5D07FA03F747FA03F707F0FF0C01DBC8
:1028E0000F4601E04FF0000707EB0008089F08FBC8
:1028F0000728019F4744DDF81C8007F1010708EB1A
:10290000071707F806C00EF101061FFA86FE039EA0
:10291000764591DC002C00DB0026B6B2009600263E
:102920006DE0BBF1000F67DB002C02DB01F101065B
:1029300001E04FF000065B4F06EB000CBE880796E7
:102940000CFB062C0AEB0506B4440196BE68039600
:1029500006EB0C17009E764417F806C0C3F1080773
:102960002CFA07FC0CFA07FC0CF0FF0C02DB01F15F
:10297000010701E04FF0000707EB0008079F08FB85
:102980000728019FB844039F07EB081707F806C004
:1029900002DB01F1010701E04FF00007DFF80481DD
:1029A00007EB000CB8F8047007970CFB072C019F8D
:1029B000BC44D8F808700CF1010C039707EB0C1716
:1029C000BF5D07FA03F747FA03F707F0FF0C02DBD6
:1029D00001F1010701E04FF0000707EB0008079F36
:1029E00008FB0728019F4744DDF80C8007F1010729
:1029F00008EB071707F806C00EF10106B6B2B64697
:102A00004E458ED36D1CADB2049EB542FFF408AFA7
:102A1000029E76077ED0002C01DB4E4600E00026A9
:102A20000096C9F110064FF0000E01963FE0BBF191
:102A3000000F33DB002C01DB0E4601E04FF00006F7
:102A4000184F06EB000CDDF80080BE8808960CFBE2
:102A5000062C0AEB0506BF68B44407EB0C1C07976D
:102A600008EB0E0703971CF807C0C3F108072CFA00
:102A700007FC0CFA07FC0CF0FF0C01DB0F4601E031
:102A80004FF0000707EB0008089F08FB07273744B3
:102A9000079E06EB0717039E07F806C00EF1010616
:102AA00002E00000542400201FFA86FE019E7645B5
:102AB000BDDC002C00DB0026B6B20096002671E0DB
:102AC000BBF1000F34DB002C02DB01F1010601E059
:102AD0004FF00006DFF8F8C406EB0007BCF804600E
:102AE000079607FB06260AEB050706EB0708DCF846
:102AF0000860039606EB081C009E764401961CF8BD
:102B000006C0C3F108062CFA06FC0CFA06FC0CF011
:102B1000FF0C00E049E002DB01F1010601E04FF0AB
:102B2000000606EB0008079E08FB0626374430E047
:102B30000AEB05070897002C02DB01F1010601E012
:102B40004FF00006DFF888C406EB0008BCF804600C
:102B5000079608FB0677DCF80860039606EB071C6F
:102B6000009E764401961CF80670C3F1080607FA29
:102B700006F747FA06F707F0FF0C089F02DB01F1A2
:102B8000010601E04FF0000606EB0008079E08FB77
:102B90000677039E06EB0717019E07F806C00EF1A5
:102BA0000106B6B2B6464E458AD3401C80B2069D99
:102BB000A842FFF433AE059D002D7DD0002577E0BF
:102BC000002C01DB4D4600E000250095C9F1100501
:102BD0004FF0000E059566E0BBF1000F5EDB002CA8
:102BE00001DB0D4601E04FF00005F94F05EB000653
:102BF000BD88079506FB052C019E0AEB06050CEB2C
:102C000005060395BD68069505EB0617009DC3F103
:102C1000080675447F5D27FA06F707FA06F707F0FE
:102C2000FF0C01DB0E4601E04FF0000606EB00084A
:102C3000079EE74F08FB0628039EB044069E06EB5E
:102C4000081606F805C001DB0E4601E04FF000064D
:102C500006EB000CBE8806960CFB062C039EB444C3
:102C6000BE680CF1010C06EB0C177F5D07FA03F749
:102C700047FA03F707F0FF0C01DB0F4601E04FF0C6
:102C8000000707EB0008069F08FB0728039F47443F
:102C900007F1010706EB071606F805C00EF101055E
:102CA0001FFA85FE059D754596DC019D6D1CADB234
:102CB000049E0195B54200E046E081D3029D6D0778
:102CC00042D0002C01DB4D4600E000250095C9F103
:102CD00010054FF0000E029534E0BBF1000F2CDB25
:102CE000002C01DB0D4601E04FF00005B84F054414
:102CF000DDF80480BE880AEB080905FB062CBD68D8
:102D0000CC44A84605EB0C17009D754417F805C088
:102D1000C3F108072CFA07FC0CFA07FC0CF0FF0CB7
:102D200001DB0F4601E04FF00007074407FB0627D1
:102D30004F4408EB071606F805C00EF101051FFA0F
:102D400085FE029D7545C8DC09B045E500221146A7
:102D5000FEF786BE10B50446B0F90C00021E00DA7C
:102D60005042A179884202DB0020A08101E0521C80
:102D7000A281B4F9100078B1401C2082B4F90C2073
:102D800000212046FEF76CFEB4F910202046BDE875
:102D900010400021FEF764BE4842EEE7C179427A56
:102DA000914202D3002211460EE0B0F90E100B1E24
:102DB00000DA5942914202DB0021C18101E05B1E31
:102DC000C381B0F90E100022FEF74ABE10B50446CA
:102DD0008079217A884204D3002211462046FEF7EA
:102DE0003FFEB4F90C00011E00DA4842227A9042FC
:102DF00002DB0020A08101E0491EA181B4F90C2072
:102E00002046BDE810400021FEF72ABE30B5B0F9DB
:102E10000C100446002901DB084600E04842A37973
:102E2000E279984206DAB4F90E00051E00DA68422B
:102E3000904205DB0020A081E0812382628209E0CC
:102E40006D1EE581491EA181608A401E6082208A34
:102E5000401E2082B4F90C20B4F90E102046FEF773
:102E6000FFFDB4F91020B4F912102046BDE830403F
:102E7000FEF7F6BDB0F90E1029B1491EC18109B2A5
:102E80000022FEF7EDBDC179F8E7B0F90E100A1E79
:102E900000DA5142C379994202DB0021C18101E08D
:102EA000521EC281B0F90E100022FEF7D9BD10B536
:102EB000B0F90E200446101E00DA5042E179884233
:102EC00002DB0020E08101E0521EE281B4F9120031
:102ED00078B1401E6082B4F90E1000222046FEF741
:102EE000BFFDB4F912102046BDE810400022FEF7E5
:102EF000B7BD6182EFE7B0F90C1029B1491E81819D
:102F00000AB20021FEF7ACBD8179F8E7B0F90C10E8
:102F10000A1E00DA51428379994202DB0021818145
:102F200001E0521E8281B0F90C200021FEF798BD0D
:102F300010B5B0F90C200446101E00DA5042A179F9
:102F4000884202DB0020A08101E0521EA281B4F978
:102F5000100078B1401E2082B4F90C2000212046D8
:102F6000FEF77EFDB4F910202046BDE81040002198
:102F7000FEF776BD2182EFE7B0F90E1029B1491CAA
:102F8000C18109B20022FEF76BBDC1794942F7E762
:102F9000B0F90E100A1E00DA5142C379994202DBE1
:102FA0000021C18101E0521CC281B0F90E10002243
:102FB000FEF756BD10B50446B0F90E00021E00DA49
:102FC0005042E179884205DB0020E08104E0000006
:102FD00054240020521CE281B4F9120078B1401C44
:102FE0006082B4F90E1000222046FEF739FDB4F9D4
:102FF00012102046BDE810400022FEF731BD4842C5
:10300000EEE730B5B0F90E100446002901DB0846A2
:1030100000E04842E379A279984206DAB4F90C005C
:10302000051E00DA6842904206DB0020A081E081A4
:1030300022825842608209E0491CE1816D1EA5810F
:10304000608A401C6082208A401E2082B4F90C20D5
:10305000B4F90E102046FEF703FDB4F91020B4F9C0
:1030600012102046BDE83040FEF7FABC10B5044609
:10307000FFF7B4FBA17A222935D015DC112942D003
:1030800008DC41B301292AD0022950D12046BDE8ED
:1030900010409BE612293AD013293CD0212946D171
:1030A0002046BDE81040E5E6332928D009DC232975
:1030B0001DD031291FD0322939D12046BDE810401A
:1030C00066E743292BD053292DD063292FD12046E1
:1030D000BDE8104095E72046BDE8104036E62046A2
:1030E000BDE810405AE62046BDE81040CDE6204637
:1030F000BDE81040DBE62046BDE810403CE7204636
:10310000BDE8104056E72046BDE81040F3E62046F3
:10311000BDE81040FAE62046BDE8104008E720462A
:10312000BDE8104016E62046BDE810406EE610BD32
:103130002DE9F0472948007800282CD0DFF8A0902E
:103140000120002589F80000DFF898A0DFF89880BA
:1031500089F801002E46082705EBC5001AF8202043
:103160008AB10AEB8004607868B1A07AA8B1208B9C
:10317000411C2183A18A884205D32046FFF776FFB0
:10318000C8F8007026836D1CEDB20A2DE4D389F8CF
:10319000006089F80160BDE8F0872046FFF766FF10
:1031A000C8F800706670EEE70D490878012808D16C
:1031B0004878421E4A70002803D108700A49082046
:1031C0000860704706494888421E4A80002803D19B
:1031D0006420488000F06DBD70470000542400203A
:1031E0005800002080220020100C014010B501F092
:1031F00086FE02F019FFBDE8104001F086BE704760
:103200003EB500250195ADF80850022201A95520D0
:1032100002F05EFF002844D0ADF80850022202A957
:10322000552003F037F814226649012002F050FFC0
:10323000644C80B16570042060800820A08001F09B
:103240005EFE14222146012003F024F801F05DFE09
:103250005DA001F077F96088A18848434FF6FF71BF
:1032600001EA0010E080FDF7D1FFA060E088FDF7E3
:10327000CDFFE060A36823B318B3022200211846F3
:10328000FDF74EFF02220021E068FDF749FF012013
:1032900020700090E388A28861884FA001F052F965
:1032A0003EBDBDF804000222401CADF8080002A992
:1032B000552002F0EFFFBDF80800B0F57A7FB2D3D9
:1032C000FEE753A001F03EF93EBD14223D49012026
:1032D00002F0E0BF3EB54FF4B4725549022002F04F
:1032E000D9FF534D002404EBC40015F8201061B140
:1032F00005EB8000C179C38A82798DE80E000379DD
:103300004279611C4BA001F01DF9641CE4B20A2C47
:10331000E9D33EBD70B58EB0282103A803F0A8FA0A
:103320004FF4FA60FDF7C6F94FF4B47422464049F1
:10333000022002F0CDFE58B1224600213C48FDF7A4
:10334000EFFEFFF7C7FF22463949022002F0A2FF35
:10335000FDF7C0F9364E042505EBC50016F8201020
:1033600031B306EB8004206A38B12046FFF736FA05
:10337000206AFDF744FF00202062207A617A00096C
:10338000C90848430001FDF741FF2062B0B1E28A5D
:103390000021FDF7C5FE01206070E079E28AA17985
:1033A0008DE8070023796279691C2FA001F0CAF823
:1033B0006D1CEDB20A2DCFD30EB070BD16A001F07A
:1033C000C1F8F9E754240020C3BBD3D0D5D2B5BD92
:1033D000CAFDBEDD0D0A0000726561642053637290
:1033E00065656E2E6B683A256420205363726565AF
:1033F0006E2E6B773A25642062756673697A653A3A
:10340000256420656E61626C653A25640D0A0000D2
:1034100064697362756666206D656D5F6D796D6157
:103420006C6C6F63206661696C210D0A00000000FE
:10343000802200207772697465206172656120695D
:10344000643A256420783A256420793A2564207707
:103450003A256420683A25642062756673697A6546
:103460003A25640D0A00000072656164206172658E
:10347000612069643A256420783A256420793A25E8
:103480006420773A256420683A2564206275667363
:10349000697A653A25640D0A00000000F0B502461D
:1034A0000020DB4F4FF40045DFF864C3AC10014649
:1034B0003E1FACF10C0C3C60130601D5356000E0FA
:1034C0003D605206120E3460DCF800304006C3F353
:1034D0008033000E0BB140F00100491CC9B208292D
:1034E000E9D3F0BD2DE9F041024600780D46802871
:1034F00001D2102600E02026A0F120015E2909D883
:10350000C449324601EB0011A1F50071284603F0D1
:1035100062F925E00221104600F01FF90446BE487A
:103520004FF4007707600B20FFF7B8FFC4F30740A4
:10353000FFF7B4FFC4F30720FFF7B0FFE0B2FFF7D7
:10354000ADFF200EFFF7AAFF002404E0FF20FFF7E5
:10355000A5FF2855641CB442F8D3AF48001F07608C
:103560003046BDE8F0812DE9F04188B015460F46A0
:103570008046002423E0260108EB04006946FFF79B
:10358000B1FFC0B2102802D0202818D106E0A81937
:103590001022694603F01FF9641C0FE000206A4600
:1035A000311812F810306B5402EB40032944401CD0
:1035B0005B78C0B20B741028F2D3A41CE4B2BC42F6
:1035C000D9D308B0CDE7F0B5012839D0022839D0D9
:1035D000A0F1C8020A2A45D2904A002302EB8012C9
:1035E000A2F5485200209E0106EB400400EB431573
:1035F000175D4F5514440D44401C6478C0B22C74C0
:103600001028F1D35B1CDBB2042BEBD300235F014A
:10361000002080379E01203606EB40043D1812F84A
:1036200004C001F805C014440D44401C6478C0B2C5
:103630002C741028F0D35B1CDBB2042BE7D3F0BD55
:10364000774A01E0764A203200200C1812F8103038
:103650000B5402EB4003401C5B78C0B2237410286B
:10366000F3D3F0BDA0F1D202082AFAD26C4A40325C
:1036700002EB8012A2F5525200200C1812F8103002
:103680000B5402EB4003401C5B78C0B2237410283B
:10369000F3D3002002EB40030C1813F8205F04F86A
:1036A000205F401C5B78C0B223741028F2D3F0BDB9
:1036B00070B586B001212820FDF7F2FF01218C03AF
:1036C0002046FDF7F6FF10208DF8170003208DF837
:1036D00016004F4E4FF42040ADF81400143E05A9DB
:1036E0003046FDF710FE4C484FF44075ADF81450CD
:1036F00005A91438FDF707FE04208DF81700ADF872
:10370000144005A93046FDF7FEFD4348001F056043
:103710000020ADF800004FF48271ADF80210ADF852
:1037200004000221ADF806100121ADF8081049028D
:10373000ADF80A103021ADF80C10ADF80E000720DE
:10374000384CADF810006946204601F0F1FD01212A
:10375000204601F06DFE06B070BD10B50246002097
:103760001378802B15D2202B01D3A3F1200039B17F
:10377000012908D0022902D12B4901EB001010BD0C
:1037800046F2C06141E0294900EB400001EB8000B6
:1037900010BD5278A3F1A1040A2C1ED8A12A1CD373
:1037A000012908D0C4EB041000EB441002EB4000E8
:1037B000A138400110BD022C07D8C4EB041000EB67
:1037C000441002EB4000A13803E0A92B01D102F123
:1037D000790000EB4000164917E0B03B472BE9D8D1
:1037E000A12AE7D3C3EB031000EB431002EB400028
:1037F000A138012906D00229DCD146F6C01101EB1F
:10380000401010BD0B4900EB400001EBC00010BDA3
:10381000140C01409480000814140140C48800086E
:103820008486000800380040C0B70300406D0600E1
:1038300080CF0300C0F203007CB50121F848FDF7FA
:10384000EBFD01216820FDF72BFF10208DF807000C
:1038500003208DF806004FF47E70ADF8040001A936
:10386000F048FDF750FD7F20ADF8040001A9EE48B7
:10387000FDF749FDFFF7C4FC4FF4C066304601F088
:10388000CDFA01210846FDF714FF1C208DF8000039
:1038900000248DF801408DF8024001258DF8035079
:1038A000684601F0C0FA304601F0B8FA0121022062
:1038B000FDF7FFFE1D208DF800008DF801508DF8FA
:1038C00002408DF80350684601F0ADFA7CBD1FB58B
:1038D000D6A191E81C00C968CDE90023CDE90241D9
:1038E000D04910310A6842F470720A601DF8000075
:1038F0008101CC4814300160082101601FBD2DE911
:10390000F0430121DFF82083DFF818C308F1140821
:10391000402280240D024E020CF1100CA8F1040983
:103920000CF10407202821D2DFE800F01013161B49
:1039300024272A2D30353A3F444B525A62666A6E2C
:1039400072767A7E82878C91969BA0A5C8F800102B
:1039500050E0C8F8001051E0C8F8001052E03E6096
:1039600004E0C8F8001051E0CCF80060082038608E
:10397000BDE8F083C8F800104CE0C8F800104DE036
:10398000C8F800104EE0C8F800104FE0C8F800106A
:1039900050E03C6013E0C8F8001050E03C6015E0D7
:1039A000C8F8001050E03C6017E0C8F8001050E084
:1039B0003C601AE0C8F8001050E0CCF800403D60D0
:1039C000CDE7C8F800104EE0CCF800403D60CBE7F2
:1039D000C8F800104CE0CCF80040CCF80050BEE72E
:1039E000C8F8001049E0CCF80040CCF80050BBE724
:1039F000C9F800103A60CCE7C9F800103A60CDE78A
:103A0000C9F800103A60CEE7C9F800103A60CFE775
:103A1000C9F800103A60D0E7C9F800103A60D3E75F
:103A2000C9F800103A60D6E7C9F800103A60DAE742
:103A3000C9F80010CCF80020ABE7C9F80010CCF8AA
:103A40000020ABE7C9F80010CCF80020ABE7C9F8BC
:103A50000010CCF80020ABE7C9F80010CCF800202B
:103A6000ABE7C9F80010CCF80020ADE7C9F80010AA
:103A7000CCF80020AFE7C9F80010CCF80020B2E77E
:103A80002DE9F043674C684E14341036371D20255D
:103A9000A4F1040872B1012A2CD0022A29D10722EC
:103AA00010234FF0020CC14625605FEA00683DD547
:103AB00033603CE0072240234FF0080CA146C9F8D0
:103AC0000050040601D5336000E03B600C0602D5CF
:103AD000C6F800C001E0C7F800C0C8F800504FEABF
:103AE00040604FEA41614FEA10604FEA1161521E97
:103AF000E5D53DE70722042325605FEA006C01D588
:103B0000356000E03D605FEA016C01D5336000E0A4
:103B10003B60C8F800504FEA40604FEA41614FEA0D
:103B200010604FEA1161521EE6D521E73B605FEA63
:103B3000016802D5C6F800C001E0C7F800C0C9F8A6
:103B400000504FEA40604FEA41614FEA10604FEA8F
:103B50001161521EA8D50BE72DE9F04F324C314FC1
:103B600010348026251D20231437A7F104098AB1BB
:103B7000012A32D0022A2ED100224FF0100CB34677
:103B80004FF00208BA462BFA02F6064241D0C4F8BA
:103B900000C040E0B64600224FF0400C4FF008084D
:103BA0009A46BB464E462EFA02F3034202D0C4F8B0
:103BB00000C001E0C5F800C00B4202D0C4F800808C
:103BC00001E0C5F80080CBF800A0C6F800A0521CA8
:103BD000D2B2082AE7D3BDE8F08FBA4600224FF0F0
:103BE000040CB3464F462BFA02F6064201D023607E
:103BF00000E02B600E4202D0C4F800C001E0C5F81E
:103C000000C0CAF800303B60521CD2B2082AEAD386
:103C1000E1E7C5F800C00E4210D0C4F800800FE004
:103C200000023000000C0140001801400E060A029C
:103C30000C0408000F070B030D050901C5F80080EF
:103C4000CAF80030C9F80030521CD2B2082A9AD300
:103C5000C1E72DE9F041FE4FDFF8F8830821FD6848
:103C60000646C8F80010002418E0102E0BD3A6F169
:103C70001000C0B200EB041028447A7890F880114C
:103C800090F8800006E006EB041041197A7891F86C
:103C90000011285CFFF760FF641CE4B2B888A04202
:103CA000E3D81020C8F80000EA49091D0860BDE803
:103CB000F0812DE9F041E74908200860E64C607882
:103CC000FFF7C7FF6078FFF71AFE6078401CC0B2AC
:103CD00060702028EBD3DE4D00266670287800281F
:103CE000E5D0DE4F0121384601F0B6FE03206060CA
:103CF000A068FCF7C1FEFCF7BCFEA060D5E902108D
:103D0000EA8802F068FDFFF713FA0021384601F057
:103D1000A3FED3480680CAE710B5D04C0121204647
:103D200002F0BBF8CC4A5168491E5160491C04D1CD
:103D30002046BDE8104001F08FBE10BD012188076C
:103D400002F0ABB810B50C460121002203E0835C01
:103D50005940521C92B2A242F9D3825C8A4201D1EC
:103D6000012010BDBFA000F0EDFB002010BD2DE92B
:103D7000F04F851C427885B00646AB46012A01D13A
:103D8000A91D0491B44CDFF8F4924FF00108042A05
:103D90007ED009DC4FF0000A7AB1012A79D0022ADC
:103DA00078D0032A77D130E2112A75D0122A74D044
:103DB000132AFCD0FF2AF5D188E2687900902B798C
:103DC000EA78A978AEA000F0BDFBFDF7C0F9014686
:103DD000B1A000F0B7FBE168481CE060B2A000F0C1
:103DE000B1FB28789A4EE0B1401E092853D2C0B2E8
:103DF000574600EBC000824609EB8A0409F82070A0
:103E00006770206A30B12046FEF7E8FC206AFDF7B3
:103E1000F6F927626878022872D8E07068787070C6
:103E20006FE08C49082008605746B246377000247E
:103E300004EBC40009EB800609F820707770306A43
:103E400010B1FDF7DCF93762641CE4B20A2CEFD93B
:103E5000687954460009AAF802002879C008AAF82F
:103E60000400FFF737FAE06838B1E2880021FDF777
:103E700057F9E068FDF7C3F9E760A06838B1E28858
:103E80000021FDF74DF9A068FDF7B9F9A76005E03D
:103E9000E3E146E096E1B7E1F7E114E26088A1884A
:103EA00048434FF6FF7101EA0010E080B0F5207F33
:103EB00002D9014681A019E0FDF7A8F9A06088B1F8
:103EC000E2880021FDF72CF9E088FDF79FF9E0601A
:103ED00078B1E2880021FDF723F984F80080FFF72C
:103EE000F4F9FFE1FDF78BF9E1887BA000F02AFBF4
:103EF000F8E1A068FDF783F9E18882A0F6E7FFE723
:103F00007770E9782171A97861716979A17129794E
:103F1000E1716782E7812782A781E78209F82A8019
:103F200070E1FDF714F901465BA000F00BFB287867
:103F30004946401EC0B200EBC00719F8270078B30D
:103F400009EB870401F827A084F801A0E8782A7912
:103F50006979049B8DE80F00AB786A78297875A0A1
:103F600000F0F0FA206A38B12046FEF737FC206AEC
:103F7000FDF745F9C4F820A0A4F812A0A4F80EA0FB
:103F8000A4F810A0A4F80CA06878A070AA78A27277
:103F9000E878A08268792072297961722AB10FE0ED
:103FA000FFE772A000F0CEFA9CE1E279914202D9DB
:103FB00084F80A8004E0A279904201D90222A27218
:103FC0000009C90848430001E082B0F5207F14D8F9
:103FD000FDF71CF9206240B1E28A0021FDF7A0F84C
:103FE000A07880B1012823D02DE04D46E18A63A05E
:103FF00000F0A8FA05F8278074E164A000F0A2FAA6
:1040000009F827806EE1E28A3178062364A000F087
:1040100099FA3078E18A801F226AB0EB111F01D82B
:10402000C1B201E0C1F307110498FFF79CFA0AE05E
:104030002878216A00EBC00009EB800050F8080CDA
:104040000078FFF7C0FA09F8278084F8018049E179
:1040500054240020100C01405C00002000040040AB
:104060005A00002078786F72206572726F72202576
:104070007820213D2025780D0A00000080220020B4
:10408000783A256420793A256420773A25642068B7
:104090003A25640D0A0000006D656DCAB9D3C3C22C
:1040A000CA3D25640D0A0000D4CBD0D0B4CECAFDE1
:1040B000636E743D25640D0A000000005363726551
:1040C000656E2E73697A65203D25642CB3ACB9FD0D
:1040D000B3A4B6C80D0A000053637265656E2E73F3
:1040E000697A653A202564202C6469736275666676
:1040F000206D796D616C6C6F63206661696C210D58
:104100000A00000053637265656E2E73697A653A22
:10411000202564202C73637265656E627566662067
:104120006D796D616C6C6F63206661696C210D0A3D
:104130000000000069643A256420747970653A25AE
:1041400064206D6F64653A25642073706565643A18
:1041500025642066683A25642066773A25642064E1
:104160006174613A25730D0A00000000C3BBD3D00F
:10417000C9E8D6C3B7D6C7F80D0A000062756673E2
:10418000697A653A202564200D0A0000627566731D
:10419000697A65B3ACB9FDB3A4B6C80D0A000000D6
:1041A0000D0A6C656E313A25642D2D2D2D6C656ED2
:1041B000323A25642D2D2D2D6C656E333D25640D11
:1041C0000A000000287800281ED0401EC0B200EB74
:1041D000C000494619F82020002AF5D009EB8004D8
:1041E00001F820A084F801A0206A554630B120468D
:1041F000FEF7F4FA206AFDF702F825626582E58190
:104200002582A581FFF766F86CE0002421E01BF809
:1042100004104D46481EC0B200EBC00719F8270035
:10422000A8B154A000F08EF9A94605F827A005EB27
:10423000870585F801A0286A38B12846FEF7CEFA2E
:10424000286AFCF7DCFFC5F820A009F82780641C69
:10425000E4B23078A042DAD844E04C46297849A04C
:10426000D9F81C2000F06EF9297846A0226C00F0E5
:1042700069F9297843A0626E00F064F9297841A0B9
:10428000D4F8882000F05EF92CE0454CFD204FF674
:10429000FF7120703078801C01EA0020A4F8010032
:1042A00084F8038084F804803278B11C601D02F029
:1042B00092FAB4F80100032101EB1020C1B22046AC
:1042C00000F0C1FB0EE084F800800BE007222946D5
:1042D00034A002F035FA28B90E2134A000F0ACFA6F
:1042E00002F0A2F8002005B075E410B59AB0642180
:1042F000684602F0BDFA314C94F8C900012815D186
:10430000FCF7B7FB2E4908616421684602F008F803
:1043100070B1A0F57F41FF3908D02A4A0821116009
:10432000C01E81B20DF10200FFF721FD1AB010BDD1
:10433000002084F8C900F9E710B5194CFD224FF6AA
:10434000FF7322708A1C03EA0222A4F801200122D2
:10435000E27022710A460146601D02F03CFAB4F890
:104360000100032101EB1020C1B22046BDE810403E
:1043700000F069BB636C6561722069643A25640D65
:104380000A00000052656164417265613A69643AED
:10439000256420646174613A25730D0A00000000F1
:1043A000E8230020696170646F776E006961702096
:1043B000617420617070200D0A0000003825002013
:1043C0005C000020100C01409748002181700170B2
:1043D00041704160C821C83802F04ABA704792481B
:1043E000C83890F8C810002906D0D0F8CC1021B1F8
:1043F00050F8CC1F491E016070470121C830417040
:1044000000210170704770B586B0012144F20400AC
:10441000FDF746F94FF40070ADF8100018208DF844
:104420001300824C03258DF8125004A92046FCF796
:104430006AFF2115ADF8101004218DF8131004A99E
:104440002046FCF760FF00244FF4E1300090ADF807
:1044500008400C20764EADF80440ADF80A00ADF8E7
:104460000640ADF80C4069463046FDF79AF9012246
:1044700040F225513046FDF701FA4FF4E06000F0BC
:10448000CDFC25208DF814008DF815408DF81650C0
:1044900001208DF8170005A800F0C5FC0121304669
:1044A000FDF7E2F9FFF790FF06B070BD10B5604C64
:1044B00001462046FDF72EFA80212046FDF777FAC7
:1044C0000028F9D010BD70B5594D0446202128466A
:1044D000FDF76DFA002804D02846FDF71FFA20707A
:1044E000012070BD08B500208DF80000504C04E09C
:1044F0009DF800102046FDF70DFA6846FFF7E3FF30
:104500000028FAD0F4E7F8B5054600200C468DF8EF
:104510000000474E0EE0295C3046FDF7FBF94021D4
:104520003046FDF744FA0028F9D09DF80000401C01
:104530008DF800009DF80000A0429DF80000EAD32D
:10454000F8BD70470FB400B5B3B035AA68463499CA
:1045500002F0CEF833B05DF814FB002120F8C81F3C
:104560004180C8228280C180704710B5B0F8CE204B
:104570000024B0F8CC309A4217D20124C830C28847
:10458000521CC28030F8C8298154B0F8C820B0F855
:10459000CC10491E8A4203D10021A0F8C81009E0BE
:1045A00030F8C81F491C018004E0FFF7D6FF21A0A6
:1045B000FFF7C8FF204610BDD0F8D020521CC0F82D
:1045C000D020D2E770B500231D461AE0B0F8CA40EB
:1045D000045D01F8014BB0F8CA60B0F8CC40641E2D
:1045E000A64202D1A0F8CA5004E0B0F8CA40641C48
:1045F000A0F8CA40B0F8CE40641EA0F8CE405B1CC4
:104600009BB2B0F8CA40B0F8C860B44201D093423F
:10461000DCD3184670BDB0F8CE00704730F8CC1F20
:104620004088081A80B270473025002000080140F9
:10463000003801400D0A555341525420746F6F20C9
:1046400066617374206572726F722100B448002134
:104650008170017041704160C821C83802F008B90A
:1046600070B50446012186B04804FDF722F8012107
:104670000420FDF715F80425ADF8105018208DF82A
:1046800013000320A74E8DF8120004A93046FCF752
:104690003AFE0820ADF810008DF8135004A93046FA
:1046A000FCF731FE00940024ADF808400C209E4D2C
:1046B000ADF80440ADF80A00ADF80640ADF80C4086
:1046C00069462846FDF76DF8012240F2244128464C
:1046D000FDF7D4F8012240F225512846FDF7CEF827
:1046E0004FF4E06000F09AFB26208DF814008DF85E
:1046F00015408DF8164001208DF8170005A800F030
:1047000092FB01212846FDF7AFF8FFF79FFF06B0A7
:1047100070BD2DE9F047844D804640F2244986B0B3
:10472000002249462846FDF7A9F840F2255A002202
:1047300051462846FDF7A2F800212846FDF794F8D7
:1047400001214804FCF7B5FF01210420FCF7A8FF74
:104750000424ADF8104018208DF813000320714F89
:104760008DF8120004A93846FCF7CDFD0826ADF8F7
:1047700010608DF8134004A93846FCF7C4FD6B485F
:104780000024B8F1010F0068ADF804400090ADF8C6
:104790000640ADF80840ADF80C4029D0ADF80A60ED
:1047A00069462846FCF7FDFF012249462846FDF7E9
:1047B00065F8012251462846FDF760F84FF4E060A5
:1047C00000F02CFB26208DF814008DF815408DF894
:1047D000164001208DF8170005A800F024FB0121E8
:1047E0002846FDF741F8FFF731FF06B0BDE8F08736
:1047F0000C20ADF80A00D3E738B501210920FCF7F9
:104800004FFF01214A48FCF707FE0820ADF80000E1
:1048100010208DF803000320464C8DF802006946F5
:104820002046FCF770FD08212046FCF7D6FD3F48E6
:104830000068FFF715FF38BDF8B5054600200C46A7
:104840008DF80000384E0EE0295C3046FDF762F826
:1048500040213046FDF7ABF80028F9D09DF8000064
:10486000401C8DF800009DF80000A0429DF800005B
:10487000EAD3F8BD704738B5044600208DF8000033
:10488000294D09E0215C2846FDF744F840212846DF
:10489000FDF78DF80028F9D09DF800002118401E82
:1048A0008DF80000087800289DF80000EAD138BD96
:1048B00010B51D4C01462046FDF72CF880212046FE
:1048C000FDF775F80028F9D0BDE810400821194817
:1048D000FCF783BD70B50446134D09E02846FDF78B
:1048E00019F880212846FDF762F80028F9D0641CE9
:1048F00021780029F2D170BD0948C83890F8C81055
:10490000002906D0D0F8CC1021B150F8CC1F491E98
:10491000016070470121C83041700021017070476B
:104920000026002000080140004400401000002044
:1049300000023000000C014002E00721491EFDD2B8
:10494000401EFAD27047704770B5012186B08804C6
:10495000FCF7AFFE01210820FCF7A2FE0121042094
:10496000FCF79EFE4FF48060ADF8000018208DF833
:10497000030003205C4E8DF8020069463046FCF7C8
:10498000C2FCB514ADF8005010248DF80340694600
:104990003046FCF7B8FC012229463046FCF71FFDE3
:1049A0002501ADF800508DF80340504C6946204673
:1049B000FCF7A9FC002229462046FCF710FD4FF425
:1049C000FA70FBF777FE012229462046FCF707FD27
:1049D000E014ADF8000004258DF803506946304618
:1049E000FCF791FC00244FF4E1300190ADF80C404D
:1049F0000C203F4EADF80840ADF80E00ADF80A406F
:104A0000ADF8104001A93046FCF7CBFE012240F280
:104A100025513046FCF732FF4FF4E06000F0FEF91C
:104A200027208DF814008DF815408DF816500120C0
:104A30008DF8170005A800F0F6F901213046FCF7C3
:104A400013FF06B070BDF8B5054600200C468DF882
:104A50000000274E0EE0295C3046FCF75BFF40214A
:104A60003046FCF7A4FF0028F9D09DF80000401C58
:104A70008DF800009DF80000A0429DF80000EAD3E8
:104A8000F8BDF8B5044600208DF800000122164F4D
:104A9000160331463846FCF7A2FCC820FFF74CFF4E
:104AA000134D0BE09DF80000215C2846FCF732FF17
:104AB00040212846FCF77BFF0028F9D09DF8000034
:104AC0002118401E8DF8000008780028EAD1C8207F
:104AD000FFF732FF002231463846FCF780FC9DF894
:104AE0000000F8BD70470000000C014000080140C4
:104AF00000480040574800218170017041704160BA
:104B0000C821C83801F0B4BE30B5012187B0C8044F
:104B1000FCF7CFFD01211020FCF7C2FD4FF44060EF
:104B2000ADF8100018208DF8130003204A4C8DF8C2
:104B3000120004A92046FCF7E6FBE114ADF81010C2
:104B400028218DF8131004A92046FCF7DCFB002473
:104B50004FF4E1300090ADF808400C203F4DADF827
:104B60000440ADF80A00ADF80640ADF80C406946C7
:104B70002846FCF716FE012240F225512846FCF794
:104B80007DFE4FF4E06000F049F934218DF81410F7
:104B90008DF8154002208DF8160001208DF81700C1
:104BA00005A800F040F901212846FCF75DFEFFF75B
:104BB000A1FF07B030BDF8B5054600200C468DF8C2
:104BC0000000264E0EE0295C3046FCF7A3FE402193
:104BD0003046FCF7ECFE0028F9D09DF80000401CA0
:104BE0008DF800009DF80000A0429DF80000EAD377
:104BF000F8BD38B5044600208DF80000174D09E0D7
:104C0000215C2846FCF786FE40212846FCF7CFFEB3
:104C10000028F9D09DF800002118401E8DF80000F2
:104C2000087800289DF80000EAD138BD0948C83846
:104C300090F8C810002906D0D0F8CC1021B150F857
:104C4000CC1F491E016070470121C830417000210E
:104C500001707047D026002000100140004C004039
:104C6000584800218170017041704160C821C838E6
:104C700001F0FEBD30B5012187B00805FCF719FD34
:104C800001212020FCF70CFD01211020FCF708FD7C
:104C90004FF48050ADF8100018208DF81300032059
:104CA0008DF8120004A94848FCF72DFB0420ADF84C
:104CB00010008DF8130004A94448FCF724FB0024DD
:104CC0004FF4E1300090ADF808400C20404DADF8B5
:104CD0000440ADF80A00ADF80640ADF80C40694656
:104CE0002846FCF75EFD012240F225512846FCF7DC
:104CF000C5FD4FF4E06000F091F835218DF81410F7
:104D00008DF8154002208DF8160001208DF817004F
:104D100005A800F088F801212846FCF7A5FDFFF75B
:104D20009FFF07B030BDF8B5054600200C468DF852
:104D30000000274E0EE0295C3046FCF7EBFD4021D9
:104D40003046FCF734FE0028F9D09DF80000401CE6
:104D50008DF800009DF80000A0429DF80000EAD305
:104D6000F8BD38B5044600208DF80000184D09E064
:104D7000215C2846FCF7CEFD40212846FCF717FEB3
:104D80000028F9D09DF800002118401E8DF8000081
:104D9000087800289DF80000EAD138BD0948C838D5
:104DA00090F8C810002906D0D0F8CC1021B150F8E6
:104DB000CC1F491E016070470121C830417000219D
:104DC00001707047A027002000100140001401402E
:104DD0000050004008B500208DF800008DF801005B
:104DE00003208DF80200684600F01DF808BD10B5DC
:104DF00045F2555000F05AFA062000F05AFA40F2F7
:104E0000A93000F059FA00F05AFABDE8104000F05D
:104E10005BBA00F054BA704700F0D1BB2749084391
:104E200027490860704770B50F23C27801780124C4
:104E30004FF0E025DAB1224A126802F4E062C2F5CE
:104E4000E062120AC2F10406D3404278B24086788A
:104E50001E401C4B16433201CA54007800F01F015B
:104E60008C40400905EB8000C0F8004170BD01F0A6
:104E70001F008440480905EB8000C0F8804170BDE8
:104E8000114A114001430E48001F016070470C4A4F
:104E9000121D0029116801D0014300E08143116017
:104EA00070474FF0E0210428086903D020F0040087
:104EB0000861704740F00400FAE700000000FA05BE
:104EC0000CED00E000E400E080FFFF1FF34A1168F2
:104ED00001F03801014311607047F0490A6822F07F
:104EE00008020A600A6802430A607047EB490A68D0
:104EF00022F010020A600A6802430A607047E7481D
:104F0000E7494160E74941607047E448016941F081
:104F1000800101617047E1490420CA68D20701D0CD
:104F200001207047CA68520701D502207047C9683E
:104F3000C906FBD50320704718B50346FFF7EBFF02
:104F4000FF2407E000940098401E0090FBD1FFF77B
:104F5000E2FF5B1E012803D0002B00D1052018BD05
:104F6000002BEFD1FAE770B5054640F6FF763046E4
:104F7000FFF7E2FF042813D1C84C206940F002007B
:104F800020616561206940F0400020613046FFF7F4
:104F9000D3FF012804D0216941F6FD72114021613F
:104FA00070BD30B540F6FF752846FFF7C5FF0428F1
:104FB00012D1BA4C206940F004002061206940F011
:104FC000400020612846FFF7B7FF012804D021697F
:104FD00041F6FB721140216130BD30B540F6FF75DE
:104FE0002846FFF7A9FF042827D1AC4CAC48A060A5
:104FF000AC48A060206940F020002061206940F0AA
:10500000400020612846FFF797FF41F6EF7504281E
:105010000ED1206941F6DF7108402061206940F01F
:1050200010002061A049A52008800F20FFF784FF11
:10503000012802D021692940216130BDF0B5064622
:105040000D460F20FFF778FF042816D1934C2069F6
:1050500040F00100206135800F20FFF76DFF41F621
:10506000FE77042804D1280C70800F20FFF764FF1E
:10507000012802D0216939402161F0BD70B5064692
:105080000D460F20FFF758FF04280FD1834C2069ED
:1050900040F00100206135800F20FFF74DFF01280F
:1050A00004D0216941F6FE721140216170BD70B5D6
:1050B00006460D460F20FFF73FFF042813D1774C1B
:1050C0007748A0607748A060206940F01000206118
:1050D00035800F20FFF730FF012804D0216941F609
:1050E000EF721140216170BDF0B5C043C7B2C0F38B
:1050F0000726C0F30745040E0F20FFF71DFF042805
:105100003CD1DFF898C16649CCF808106549CCF865
:105110000810DCF8101041F01001CCF81010FF2F2F
:1051200007D06148083007800F20FFF705FF0428EB
:105130001BD1FF2E07D05C480A3006800F20FFF7F6
:10514000FBFE042811D1FF2D07D057480C300580F5
:105150000F20FFF7F1FE042807D1FF2C07D052489B
:105160000E3004800F20FFF7E7FE012806D0DCF8A0
:10517000101041F6EF721140CCF81010F0BD70B570
:10518000054640F6FF763046FFF7D6FE042818D1D4
:10519000424C4348A0604348A060206940F0200092
:1051A0002061206940F0400020613046FFF7C4FED6
:1051B00041F6DF71042805D0012802D022690A4097
:1051C000226170BD206908402061206940F0100014
:1051D000206135480DB1002100E0A5210180304655
:1051E000FFF7AAFE0128ECD0216941F6EF721140C9
:1051F000216170BDF0B5294C0546294816460F4679
:10520000A0602848A0600F20FFF796FE042814D164
:10521000206940F0100020613D4323493543891C3B
:1052200045F0F80008800F20FFF786FE012804D023
:10523000216941F6EF7211402161F0BD1748C06944
:10524000800870471548006A704714490020C969F2
:10525000890700D501207047104900200968890698
:1052600000D5012070470D4A0029116901D0014382
:1052700000E081431161704701460020074A01297F
:1052800003D0D2680A4203D17047D169C907FBD065
:10529000012070470149C8607047000000200240AB
:1052A00023016745AB89EFCD00F8FF1F0D4908606A
:1052B00070470C49486070470A498860704709493F
:1052C0004AF6AA200860704706494CF6CC400860B0
:1052D0007047044A01460020D2680A4200D00120EB
:1052E00070470000003000409B4910B5401810D0B6
:1052F000B0F5806F10D0B0F5784F18D101210C03B4
:105300002046FCF7DFF92046BDE810400021FCF7FD
:10531000D9B901218C0301E00121CC032046FCF71F
:10532000DAF92046BDE810400021FCF7D4B910BDE1
:1053300030B502884C8802F441530A88CD88224354
:105340008C882C4322430C8922434C8922438C892C
:105350002243CC8922431A430280828B22F40062CA
:105360008283098A018230BDF0B505460C460220D1
:105370000021AA8B85B001264FF240031A40AA8370
:105380002884AF8B2289022A20D0A08800B102266F
:105390006846FCF73BF9E088B0F5007F2CD0208907
:1053A00071014143009800EB80004000B0FBF1F038
:1053B000401D80B20A21B0FBF1F000F00101401A5B
:1053C0004FF6FF72C0F34F0002EA0121821EFE2A4F
:1053D00001D302200021E288084302432A84208866
:1053E000618862890843A18811430843384340F427
:1053F0000060A88305B0F0BD0098218900EB800013
:1054000040000902D2E70021018041808180C180F3
:10541000018141818181C181072101827047002181
:10542000018041808180C1800222028141817047D8
:105430000029018802D041F0400101E021F0400143
:10544000018070470029818B02D041F4806101E026
:1054500021F4806181837047090901238B40002A70
:10546000828899B201D00A4300E08A438280704763
:10547000002A828801D00A4300E08A438280704774
:105480008181704780897047A1F57E420188FF3A8B
:1054900002D041F4807101E021F4807101807047F5
:1054A0000029818802D041F0040101E021F00401CB
:1054B00081807047028822F40062028002880A43D9
:1054C00002807047018841F48051018070470029B3
:1054D000018802D041F4005101E021F40051018023
:1054E0007047012901D0008B7047808A7047008A7D
:1054F0007047B1F5804F018803D021F480410180CD
:10550000704741F48041FAE70246002012890A42BE
:1055100000D001207047C9430181704730B501F0C8
:105520000F030125024605FA03F40020A3B209097E
:1055300005FA01F49188A4B2128921401A4202D0DE
:10554000002900D0012030BD01F00F02012191405F
:10555000C94301817047000000C8FFBF10B5012199
:10556000CC022046FCF7B7F82046BDE810400021E9
:10557000FCF7B1B8144A116821F4C07101431160FD
:105580007047114A116800F07F0021F07F01084345
:10559000106070470D490120086070470A4900F00B
:1055A0007F00091F08607047074940F08000091F0D
:1055B000086070470448001D0068C0B27047024987
:1055C0000020091D08607047042C0040A48005429B
:1055D000FA4A10B5811A1315D41490423BD010DC4E
:1055E000B0F1804F22D0F649401826D098422BD0F7
:1055F000A04241D101210820FCF76DF800210820CC
:1056000036E099422ED0B1F58E3F0DD0B1F5923FE4
:1056100032D101214C032046FCF754F82046BDE866
:1056200010400021FCF74EB80121F4E701210846A3
:10563000FCF751F8002101201AE001210220FCF7BB
:105640004AF80021022013E001210420FCF743F86E
:10565000002104200CE001211020FCF73CF800217F
:10566000102005E001212020FCF735F80021202042
:10567000BDE81040FCF72FB810BD028802F08F0281
:105680000280CA884B881A4303881A4302808A889A
:1056900082850A880285CB4A904202D0CA4A90424B
:1056A00001D1097A018601218182704730B5028CCF
:1056B00022F001020284028C8388048B22F0020211
:1056C00024F070050C882C430D8915434A882A4321
:1056D000CD888586BB4DA84202D0BB4DA8420DD1D6
:1056E00022F008054A8923F403432A4322F00405E3
:1056F0008A882A438D891D43CB892B438380048369
:10570000028430BD70B5028C22F010020284028C3B
:105710008388048B0D8824F4E0464FF6FF7404EA76
:10572000052535430E8922F0200204EA06161643A9
:105730004A8804EA02123243CE880687A14EB0425C
:1057400002D0A14EB04215D122F080064A8923F43E
:105750000C4304EA0212324322F040068A8804EA2B
:10576000021232438E89C98904EA86061E4304EA7E
:105770008103334383800583028470BD70B5028C3E
:1057800022F480720284028C8388848B0D8824F03A
:10579000700425430E894FF6FF7422F4007204EA68
:1057A000062616434A8804EA02223243CE888687B8
:1057B000844EB04202D0844EB04215D122F400662D
:1057C0004A8923F4304304EA0222324322F48066F9
:1057D0008A8804EA022232438E89C98904EA0616BD
:1057E0001E4304EA0113334383808583028470BD22
:1057F00070B5028C22F480520284058C8288838BDF
:105800000C8823F4E0464FF6FF7303EA0424344384
:105810000E8925F4005503EA06362E434D8803EA27
:1058200005353543CE88A0F84060664EB04202D0C0
:10583000654EB04205D18989C2F30D0603EA811293
:10584000324382808483058470BD828B22F440625F
:105850008283828B4FF6FF7303EA01210A4382831E
:105860007047828B22F00C028283828B0A438283F0
:105870007047028B22F440620283028B4FF6FF7363
:1058800003EA01210A4302837047F0B5048C24F037
:1058900010040484078B068C4FF6FF7404EA01158C
:1058A00027F4734704EA0331394304EA02220A4326
:1058B00026F02001294341F0100102830184F0BD4C
:1058C000028B22F00C020283028B0A430283704790
:1058D0002DE9F0410C46054608884988A2882389AD
:1058E000F8B1042825D00828288C4FF6FF7628D058
:1058F00020F480502884AF8B288C06EA01311202F4
:1059000027F4734642EA0332324320F4005008433E
:1059100040F48050AA832884E1882846BDE8F041FD
:1059200093E7284600F0CBFAE1882846BDE8F0412D
:10593000C6E72846FFF7A9FFE1882846BDE8F04101
:1059400097E720F480702884AF8B288C06EA031335
:1059500027F0F30713433B4306EA012120F40070CC
:10596000084340F48070AB832884E1882846BDE872
:10597000F04176E72DE9F0410C46002649880746BC
:10598000012501B90226A288012A00D1022520881A
:1059900023890028384619D0FFF777FFE188384679
:1059A000FFF767FF23892A463146384600F087FA19
:1059B000E1883846BDE8F04182E700000010004071
:1059C00000FCFFBF002C01400034014000F077FADA
:1059D000E1883846FFF774FF23892A463146384666
:1059E000FFF753FFE1883846BDE8F04141E710B5C5
:1059F0000A884B88CC881A438B8823431A430B8927
:105A00001A434B8989891A430A43A0F8442010BDE0
:105A10004FF6FF71818000210180C18041800172B9
:105A200070470021018041808180C18001814181D6
:105A30008181C181704700210180418001228280E3
:105A4000C180018170470021018041808180C18037
:105A500001814181818170470029018802D041F094
:105A6000010102E040F2FE3211400180704700293E
:105A700030F8441F02D041F4004101E0C1F30E01AF
:105A800001807047002A828901D00A4300E08A43DE
:105A900082817047818270471143A0F84810704797
:105AA000002A828901D00A4300E08A43828170473C
:105AB000018921F0070101817047028922F07002FB
:105AC0000A430281704700B50346FFF7F6FF1889C5
:105AD00040F00700188100BD70B516460D466029DC
